:020000040800F2
:1000000000500020DD080008250900082509000827
:10001000250900082509000825090008000000003E
:10002000000000000000000000000000250900089A
:10003000250900080000000025090008250900081E
:1000400025090008250900082509000825090008D8
:1000500025090008250900082509000825090008C8
:1000600025090008250900082509000825090008B8
:1000700025090008250900082509000825090008A8
:100080002509000825090008250900082509000898
:100090002509000825090008250900082509000888
:1000A0002509000825090008250900082509000878
:1000B000C1050008250900082509000825090008D0
:1000C0002509000825090008250900082509000858
:1000D0002509000825090008250900082509000848
:1000E000250900082509000825090008000000006E
:1000F0000000000000000000000000000000000000
:0C01000000000000000000005FF808F1A3
:10010C004FF0FF0C1CEAD0521EBF1CEAD15392EAEE
:10011C000C0F93EA0C0F6FD01A4480EA010C4002CA
:10012C0018BF5FEA41211ED04FF0006343EA501024
:10013C0043EA5111A0FB01310CF00040B1F5000F66
:10014C003EBF490041EAD3715B0040EA010062F115
:10015C007F02FD2A1DD8B3F1004F40EBC25008BFFF
:10016C0020F00100704790F0000F0CF0004C08BF1D
:10017C0049024CEA502040EA51207F3AC2BFD2F1EA
:10018C00FF0340EAC250704740F400004FF00003F8
:10019C00013A5DDC12F1190FDCBF00F00040704732
:1001AC00C2F10002410021FA02F1C2F1200200FA70
:1001BC0002FC5FEA310040F1000053EA4C0308BF37
:1001CC0020EADC70704792F0000F00F0004C02BF88
:1001DC00400010F4000F013AF9D040EA0C0093F003
:1001EC00000F01F0004C02BF490011F4000F013B5D
:1001FC00F9D041EA0C018FE70CEAD15392EA0C0FCB
:10020C0018BF93EA0C0F0AD030F0004C18BF31F035
:10021C00004CD8D180EA010000F00040704790F00B
:10022C00000F17BF90F0004F084691F0000F91F0AF
:10023C00004F14D092EA0C0F01D142020FD193EA75
:10024C000C0F03D14B0218BF084608D180EA0100FD
:10025C0000F0004040F0FE4040F40000704740F0D9
:10026C00FE4040F44000704780F0004002E000BFC8
:10027C0081F0004142001FBF5FEA410392EA030F85
:10028C007FEA226C7FEA236C6AD04FEA1262D2EBCF
:10029C001363C1BFD218414048404140B8BF5B42D4
:1002AC00192B88BF704710F0004F40F4000020F06D
:1002BC007F4018BF404211F0004F41F4000121F083
:1002CC007F4118BF494292EA030F3FD0A2F10102CD
:1002DC0041FA03FC10EB0C00C3F1200301FA03F10B
:1002EC0000F0004302D5494260EB4000B0F5000F2E
:1002FC0013D3B0F1807F06D340084FEA310102F1ED
:10030C000102FE2A51D2B1F1004F40EBC25008BF9E
:10031C0020F0010040EA03007047490040EB000068
:10032C00013A28BFB0F5000FEDD2B0FA80FCACF169
:10033C00080CB2EB0C0200FA0CF0AABF00EBC25096
:10034C0052421843BCBFD0401843704792F0000F84
:10035C0081F4000106BF80F400000132013BB5E7D7
:10036C004FEA41037FEA226C18BF7FEA236C21D04D
:10037C0092EA030F04D092F0000F08BF08467047B2
:10038C0090EA010F1CBF0020704712F07F4F04D180
:10039C00400028BF40F00040704712F100723CBF93
:1003AC0000F50000704700F0004343F0FE4040F4BD
:1003BC00000070477FEA226216BF08467FEA23637B
:1003CC000146420206BF5FEA412390EA010F40F466
:1003DC00800070474FF0000304E000BF10F00043B2
:1003EC0048BF40425FEA000C08BF704743F0964399
:1003FC0001464FF000001CE050EA010208BF7047B4
:10040C004FF000030AE000BF50EA010208BF70473A
:10041C0011F0004302D5404261EB41015FEA010C4F
:10042C0002BF84460146002043F0B64308BFA3F147
:10043C008053A3F50003BCFA8CF2083AA3EBC25329
:10044C0010DB01FA02FC634400FA02FCC2F1200248
:10045C00BCF1004F20FA02F243EB020008BF20F07F
:10046C000100704702F1200201FA02FCC2F12002E5
:10047C0050EA4C0021FA02F243EB020008BF20EADA
:10048C00DC7070474FF0FF3C06E000BF4FF0010CF2
:10049C0002E000BF4FF0010C4DF804CD4FEA4002D2
:1004AC004FEA41037FEA226C18BF7FEA236C11D01C
:1004BC0001B052EA530C18BF90EA010F58BFB2EBCF
:1004CC00030088BFC81738BF6FEAE17018BF40F04F
:1004DC00010070477FEA226C02D15FEA402C05D103
:1004EC007FEA236CE4D15FEA412CE1D05DF8040B88
:1004FC00704700BF844608466146FFE70FB5FFF71B
:10050C00C9FF002848BF10F1000F0FBD4DF808EDD2
:10051C00FFF7F4FF0CBF012000205DF808FB00BFC3
:10052C004DF808EDFFF7EAFF34BF012000205DF81D
:10053C0008FB00BF4DF808EDFFF7E0FF94BF01206A
:10054C0000205DF808FB00BF4DF808EDFFF7D2FF67
:10055C0094BF012000205DF808FB00BF4DF808EDAA
:10056C00FFF7C8FF34BF012000205DF808FB00BF77
:10057C0010B5054C237833B9044B13B10448AFF3D1
:10058C0000800123237010BD00000020000000003B
:10059C007009000808B5034B1BB103490348AFF3BE
:1005AC00008008BD00000000040000207009000855
:1005BC007047000038B54FF080431B6913F0010FF2
:1005CC0000F090804FF08042136923F00103136117
:1005DC00454B1B78002B3CD14FF08044434B1868A3
:1005EC004349FFF78DFD01462046FFF741FE0446C7
:1005FC004049FFF785FD404D2968FFF73BFE286019
:10060C003E49FFF7ABFF08B13C4A2A603C493A4BE4
:10061C001868FFF785FF10B1374B394A1A60394912
:10062C002046FFF76DFD04463749334B1868FFF73A
:10063C0067FD01462046FFF71DFE04463349FFF7D0
:10064C008DFF40B932492046FFF76AFF20B1304C8C
:10065C0002E00024C2E72D4C2E4B18682E49FFF700
:10066C004FFD01462046FFF703FE04462149FFF7E4
:10067C0047FD2A4D2968FFF7FDFD28601F49FFF74C
:10068C006DFF08B11D4A2A601D49244B1868FFF7FD
:10069C0047FF10B1214B1A4A1A6021492046FFF737
:1006AC002FFD04461F491D4B1868FFF729FD014615
:1006BC002046FFF7DFFD1C4B186018684FF0804197
:1006CC00FFF74CFF18B1184B4FF080421A60164BD5
:1006DC0018684FF04041FFF723FF18B1124B4FF051
:1006EC0040421A6038BD00BF240000202C000020BE
:1006FC003EC32E3A0E745A3A1C0000200000704182
:10070C00000070C100001C45008EB4460000204162
:10071C00000020C1300000206F12033B200000209D
:10072C0058CAB23EFCA9D54028000020144A1368D0
:10073C0043F480331360124B1B6813F4003FFAD060
:10074C00104A136843F0040313600D4B5A6842F4CB
:10075C00E8125A601A6842F080721A60084B1B68E3
:10076C0013F0007FFAD0064A536843F0020353603B
:10077C00034B5B6803F00C03082BF9D1704700BFE7
:10078C0000100240002002400D4AD36943F00103DF
:10079C00D3614FF0804347229A624FF45072DA6271
:1007AC00DA6842F00102DA60064A002182F81C1372
:1007BC004FF0805111601A6842F001021A607047C4
:1007CC000010024000E100E010B5FFF7AFFFFFF7AB
:1007DC00DBFF02E02D4B01221A702D4B18682D49BE
:1007EC00FFF78EFC2C49FFF78BFC2C4C2168FFF794
:1007FC003FFD2B49FFF784FC2A49FFF781FC01469A
:10080C002068FFF737FD206020682749FFF778FC48
:10081C00264C2168FFF72CFD2549FFF771FC214977
:10082C00FFF76EFC01462068FFF724FD206020686E
:10083C002049FFF765FC204C2168FFF719FD1F4983
:10084C00FFF75EFC1749FFF75BFC01462068FFF7DA
:10085C0011FD206020681A49FFF780FE0028B9D1ED
:10086C0020681849FFF75CFE0028B3D10F4B1868BD
:10087C001549FFF773FE0028ACD10C4B18681349CF
:10088C00FFF74EFE0028A8D0A4E700BF24000020EC
:10089C0028000020C74BA841CDCC4C41340000208F
:1008AC00ABAAA64317B7D1389A99F93F300000206C
:1008BC00B3F698413D0A37402C000020F9067940E8
:1008CC0000C0414500C041C500808944008089C4F6
:1008DC00FFF76EFE0B480C490C4A002302E0D4587B
:1008EC00C4500433C4188C42F9D3094A094C002370
:1008FC0001E013600432A242FBD300F00FF8FFF7C3
:10090C0063FF7047000000200000002090090008E1
:10091C000000002038000020FEE7000070B5002623
:10092C000C4D0D4C641BA410A64209D100F01AF812
:10093C0000260A4D0A4C641BA410A64205D170BDBA
:10094C0055F8043B98470136EEE755F8043B9847B9
:10095C000136F2E7880900088809000888090008B0
:10096C008C090008F8B500BFF8BC08BC9E4670475F
:0C097C00F8B500BFF8BC08BC9E467047F0
:04098800A1050008BD
:04098C007D050008DD
:04000005080008DD0A
:00000001FF
